{
  "transactions": [
    {
      "hash": "0xf9871de59887b877d2313e9338c81c3a725c482e41bc8b3e7382a3acb15f01fe",
      "transactionType": "CALL",
      "contractName": "MatchMaking",
      "contractAddress": "0x8c85db386ca5f169dfe5e2431429ad4596b2d2d5",
      "function": "like(address)",
      "arguments": [
        "0x4e281a642ba67Cf4851366EA463dcd76b1bFa491"
      ],
      "transaction": {
        "from": "0xaf3a89d6b8ecbd83510af833d82d8a7e706379bb",
        "to": "0x8c85db386ca5f169dfe5e2431429ad4596b2d2d5",
        "gas": "0x103b3",
        "value": "0x0",
        "input": "0xe465c4650000000000000000000000004e281a642ba67cf4851366ea463dcd76b1bfa491",
        "nonce": "0xe",
        "chainId": "0xaa36a7"
      },
      "additionalContracts": [],
      "isFixedGasLimit": false
    }
  ],
  "receipts": [
    {
      "status": "0x1",
      "cumulativeGasUsed": "0xce943c",
      "logs": [
        {
          "address": "0x8c85db386ca5f169dfe5e2431429ad4596b2d2d5",
          "topics": [
            "0x51f8aa0e952472289f1c1c1a4081a55320ec74ba88d405c3f5d4962730478091",
            "0x000000000000000000000000af3a89d6b8ecbd83510af833d82d8a7e706379bb",
            "0x0000000000000000000000004e281a642ba67cf4851366ea463dcd76b1bfa491"
          ],
          "data": "0x",
          "blockHash": "0xf3019a2c1151abdb404d0ea8124c395b04a36570c3fbcfb1e91e4b6d6a9ad040",
          "blockNumber": "0x76a2dc",
          "transactionHash": "0xf9871de59887b877d2313e9338c81c3a725c482e41bc8b3e7382a3acb15f01fe",
          "transactionIndex": "0x73",
          "logIndex": "0xf0",
          "removed": false
        }
      ],
      "logsBloom": "0x00000000000000000000000000000000000000000000000000000000000000000000000000000000000000000000000000400000000000000000000000000000000000000000000000000000000000080000000000000000000000000200000000000000000000000000000000000000000000000000000000000000000400000000000000000000000000000000000000000000000000000000000004000000000000000000002000000000000000000000000000000000000000000000000000200000000100000000000000000000000000040000000000000000000000001000000000000000000000000001000000000000010000000000000000000000",
      "type": "0x2",
      "transactionHash": "0xf9871de59887b877d2313e9338c81c3a725c482e41bc8b3e7382a3acb15f01fe",
      "transactionIndex": "0x73",
      "blockHash": "0xf3019a2c1151abdb404d0ea8124c395b04a36570c3fbcfb1e91e4b6d6a9ad040",
      "blockNumber": "0x76a2dc",
      "gasUsed": "0xbc05",
      "effectiveGasPrice": "0x1045e36239",
      "from": "0xaf3a89d6b8ecbd83510af833d82d8a7e706379bb",
      "to": "0x8c85db386ca5f169dfe5e2431429ad4596b2d2d5",
      "contractAddress": null
    }
  ],
  "libraries": [],
  "pending": [],
  "returns": {},
  "timestamp": 1740390289,
  "chain": 11155111,
  "commit": null
}