{
  "transactions": [
    {
      "hash": null,
      "transactionType": "CALL",
      "contractName": "MatchMaking",
      "contractAddress": "0x8c85db386ca5f169dfe5e2431429ad4596b2d2d5",
      "function": "like(address)",
      "arguments": [
        "0xaF3A89D6B8ECBD83510aF833d82D8A7e706379Bb"
      ],
      "transaction": {
        "from": "0x4e281a642ba67cf4851366ea463dcd76b1bfa491",
        "to": "0x8c85db386ca5f169dfe5e2431429ad4596b2d2d5",
        "gas": "0x10c09",
        "value": "0x0",
        "input": "0xe465c465000000000000000000000000af3a89d6b8ecbd83510af833d82d8a7e706379bb",
        "nonce": "0x0",
        "chainId": "0xaa36a7"
      },
      "additionalContracts": [],
      "isFixedGasLimit": false
    }
  ],
  "receipts": [],
  "libraries": [],
  "pending": [],
  "returns": {},
  "timestamp": 1740390425,
  "chain": 11155111,
  "commit": null
}