{
  "transactions": [
    {
      "hash": null,
      "transactionType": "CALL",
      "contractName": "MatchMaking",
      "contractAddress": "0x8c85db386ca5f169dfe5e2431429ad4596b2d2d5",
      "function": "like(address)",
      "arguments": [
        "0x4e281a642ba67Cf4851366EA463dcd76b1bFa491"
      ],
      "transaction": {
        "from": "0xaf3a89d6b8ecbd83510af833d82d8a7e706379bb",
        "to": "0x8c85db386ca5f169dfe5e2431429ad4596b2d2d5",
        "gas": "0x103b3",
        "value": "0x0",
        "input": "0xe465c4650000000000000000000000004e281a642ba67cf4851366ea463dcd76b1bfa491",
        "nonce": "0xe",
        "chainId": "0xaa36a7"
      },
      "additionalContracts": [],
      "isFixedGasLimit": false
    }
  ],
  "receipts": [],
  "libraries": [],
  "pending": [],
  "returns": {},
  "timestamp": 1740390052,
  "chain": 11155111,
  "commit": null
}