{
  "transactions": [
    {
      "hash": "0xd2356b4b7a6d68696afc907ffa50028afb453ddaee6697bd86fddc632b7be3eb",
      "transactionType": "CALL",
      "contractName": "MatchMaking",
      "contractAddress": "0x8c85db386ca5f169dfe5e2431429ad4596b2d2d5",
      "function": "like(address)",
      "arguments": [
        "0xaF3A89D6B8ECBD83510aF833d82D8A7e706379Bb"
      ],
      "transaction": {
        "from": "0x4e281a642ba67cf4851366ea463dcd76b1bfa491",
        "to": "0x8c85db386ca5f169dfe5e2431429ad4596b2d2d5",
        "gas": "0x10c09",
        "value": "0x0",
        "input": "0xe465c465000000000000000000000000af3a89d6b8ecbd83510af833d82d8a7e706379bb",
        "nonce": "0x0",
        "chainId": "0xaa36a7"
      },
      "additionalContracts": [],
      "isFixedGasLimit": false
    }
  ],
  "receipts": [
    {
      "status": "0x1",
      "cumulativeGasUsed": "0x4146be",
      "logs": [
        {
          "address": "0x8c85db386ca5f169dfe5e2431429ad4596b2d2d5",
          "topics": [
            "0x51f8aa0e952472289f1c1c1a4081a55320ec74ba88d405c3f5d4962730478091",
            "0x0000000000000000000000004e281a642ba67cf4851366ea463dcd76b1bfa491",
            "0x000000000000000000000000af3a89d6b8ecbd83510af833d82d8a7e706379bb"
          ],
          "data": "0x",
          "blockHash": "0x17214315e6932efb506e1bc3992f78698de3dab44545cde33705131864297a90",
          "blockNumber": "0x76a2f6",
          "transactionHash": "0xd2356b4b7a6d68696afc907ffa50028afb453ddaee6697bd86fddc632b7be3eb",
          "transactionIndex": "0x2c",
          "logIndex": "0x67",
          "removed": false
        },
        {
          "address": "0x8c85db386ca5f169dfe5e2431429ad4596b2d2d5",
          "topics": [
            "0xe1b1f2391e958eea0072a8131614fb35bfc41293cc2b77d875904e59204322a7",
            "0x0000000000000000000000004e281a642ba67cf4851366ea463dcd76b1bfa491",
            "0x000000000000000000000000af3a89d6b8ecbd83510af833d82d8a7e706379bb"
          ],
          "data": "0x",
          "blockHash": "0x17214315e6932efb506e1bc3992f78698de3dab44545cde33705131864297a90",
          "blockNumber": "0x76a2f6",
          "transactionHash": "0xd2356b4b7a6d68696afc907ffa50028afb453ddaee6697bd86fddc632b7be3eb",
          "transactionIndex": "0x2c",
          "logIndex": "0x68",
          "removed": false
        }
      ],
      "logsBloom": "0x00000000000000000000000000000100000000000000000000000000000000000000000000000000000000000000000000400000000000000000000000000000000000000000000000000000000000080000000000000000000000000200000000000000000000000000000000000000000000000000000000000000000400000000000000000000000000000000000000000000000000000000000004000000000000000000002000000000000000000000000000000000000000000000000000200000000100000000000000000400000002040000000000000000000000001000000000000000000000000001000000000000010000000000000000000000",
      "type": "0x2",
      "transactionHash": "0xd2356b4b7a6d68696afc907ffa50028afb453ddaee6697bd86fddc632b7be3eb",
      "transactionIndex": "0x2c",
      "blockHash": "0x17214315e6932efb506e1bc3992f78698de3dab44545cde33705131864297a90",
      "blockNumber": "0x76a2f6",
      "gasUsed": "0xc20f",
      "effectiveGasPrice": "0x128da46266",
      "from": "0x4e281a642ba67cf4851366ea463dcd76b1bfa491",
      "to": "0x8c85db386ca5f169dfe5e2431429ad4596b2d2d5",
      "contractAddress": null
    }
  ],
  "libraries": [],
  "pending": [],
  "returns": {},
  "timestamp": 1740390626,
  "chain": 11155111,
  "commit": null
}